:020000040800F2
:100000000000022079040108A9DF0008AFDF000822
:10001000B5DF0008BBDF0008C1DF000800000000FA
:10002000000000000000000000000000C7DF000822
:10003000D5DF000800000000E3DF0008F1DF000862
:1000400073F4000873F4000873F4000873F40008F4
:1000500073F4000873F4000873F4000873F40008E4
:1000600073F4000873F4000873F4000873F40008D4
:1000700073F4000873F40008FDDF000811E00008C5
:1000800073F4000873F4000873F4000873F40008B4
:10009000F1FA000873F4000873F4000825E0000882
:1000A00073F4000873F4000873F4000873F4000894
:1000B00035E0000849E0000873F4000873F4000814
:1000C00073F400085DE0000871E0000873F40008B4
:1000D00085E0000899E00008ADE00008C1E00008F4
:1000E00073F4000873F4000873F4000873F4000854
:1000F00073F4000873F4000873F4000873F4000844
:1001000073F4000873F40008D5E0000873F40008E5
:10011000E9E0000873F40008FDE0000873F400084B
:1001200073F4000873F4000873F4000873F4000813
:1001300073F40008000000000000000073F40008E1
:100140000DFB000873F4000873F4000811E10008C7
:1001500073F4000873F4000873F4000825E1000844
:1001600039E100084DE1000873F4000873F4000859
:1001700073F4000873F400080000000000000000A1
:0801800073F4000873F4000899
:1001900010B5054C237833B9044B13B10448AFF3C1
:1001A00000800123237010BDD00200200000000059
:1001B000F0EB010808B5034B1BB103490348AFF34B
:1001C000008008BD00000000D4020020F0EB010810
:1001D000034613F8012B002AFBD1181A0138704787
:1001E00001F0FF01102A2BDB10F0070F08D010F8E8
:1001F000013B013A8B422DD010F0070F42B3F6D1EC
:10020000F0B441EA012141EA014122F007047FF004
:1002100000070023F0E80256083C85EA010586EA5B
:10022000010685FA47F5A3FA87F586FA47F6A5FA97
:1002300087F68EB9EED1F0BC01F0FF0102F00702A3
:1002400032B110F8013B013A83EA010313B1F8D14E
:100250000020704701387047002D06BF354603382F
:10026000073815F0010F07D1013015F4807F02BF68
:10027000013015F4C03F0130F0BC0138704700BFB9
:1002800081F0004102E000BF83F0004330B54FEA47
:1002900041044FEA430594EA050F08BF90EA020FB4
:1002A0001FBF54EA000C55EA020C7FEA645C7FEA47
:1002B000655C00F0E2804FEA5454D4EB5555B8BF6A
:1002C0006D420CDD2C4480EA020281EA030382EADB
:1002D000000083EA010180EA020281EA0303362D6D
:1002E00088BF30BD11F0004F4FEA01314FF4801C40
:1002F0004CEA113102D0404261EB410113F0004F52
:100300004FEA03334CEA133302D0524263EB430308
:1003100094EA050F00F0A780A4F10104D5F1200EA6
:100320000DDB02FA0EFC22FA05F2801841F1000101
:1003300003FA0EF2801843FA05F359410EE0A5F1D5
:1003400020050EF1200E012A03FA0EFC28BF4CF006
:10035000020C43FA05F3C01851EBE37101F00045BC
:1003600007D54FF0000EDCF1000C7EEB00006EEBC9
:100370000101B1F5801F1BD3B1F5001F0CD3490853
:100380005FEA30004FEA3C0C04F101044FEA4452AA
:1003900012F5800F80F09A80BCF1004F08BF5FEA31
:1003A000500C50F1000041EB045141EA050130BD11
:1003B0005FEA4C0C404141EB0101013C28BFB1F523
:1003C000801FE9D291F0000F04BF01460020B1FA6E
:1003D00081F308BF2033A3F10B03B3F120020CDA41
:1003E0000C3208DD02F1140CC2F10C0201FA0CF01F
:1003F00021FA02F10CE002F11402D8BFC2F1200C84
:1004000001FA02F120FA0CFCDCBF41EA0C01904039
:10041000E41AA2BF01EB0451294330BD6FEA040482
:100420001F3C1CDA0C340EDC04F11404C4F120026D
:1004300020FA04F001FA02F340EA030021FA04F37F
:1004400045EA030130BDC4F10C04C4F1200220FAD6
:1004500002F001FA04F340EA0300294630BD21FA14
:1004600004F0294630BD94F0000F83F4801306BFDA
:1004700081F480110134013D4EE77FEA645C18BFCE
:100480007FEA655C29D094EA050F08BF90EA020F65
:1004900005D054EA000C04BF1946104630BD91EA5D
:1004A000030F1EBF0021002030BD5FEA545C05D160
:1004B0004000494128BF41F0004130BD14F580049F
:1004C0003CBF01F5801130BD01F0004545F0FE4113
:1004D00041F470014FF0000030BD7FEA645C1ABF48
:1004E000194610467FEA655C1CBF0B46024650EA7F
:1004F000013406BF52EA033591EA030F41F40021AB
:1005000030BD00BF90F0000F04BF0021704730B530
:100510004FF4806404F132044FF000054FF0000105
:1005200050E700BF90F0000F04BF0021704730B5C6
:100530004FF4806404F1320410F0004548BF40429B
:100540004FF000013EE700BF42004FEAE2014FEAF0
:1005500031014FEA02701FBF12F07F4393F07F4FCB
:1005600081F06051704732F07F4208BF704793F0CE
:100570007F4F04BF41F40021704730B54FF46074E1
:1005800001F0004521F000411CE700BF50EA0102E4
:1005900008BF704730B54FF000050AE050EA01028D
:1005A00008BF704730B511F0004502D5404261EBFD
:1005B00041014FF4806404F132045FEA915C3FF43E
:1005C000D8AE4FF003025FEADC0C18BF03325FEADB
:1005D000DC0C18BF033202EBDC02C2F1200300FA8C
:1005E00003FC20FA02F001FA03FE40EA0E0021FAB1
:1005F00002F11444BDE600BF70B54FF0FF0C4CF49F
:10060000E06C1CEA11541DBF1CEA135594EA0C0F50
:1006100095EA0C0F00F0DEF82C4481EA030621EA8B
:100620004C5123EA4C5350EA013518BF52EA0335C6
:1006300041F4801143F4801338D0A0FB02CE4FF078
:100640000005E1FB02E506F00042E0FB03E54FF0A8
:100650000006E1FB03569CF0000F18BF4EF0010EA0
:10066000A4F1FF04B6F5007F64F5407404D25FEA9C
:100670004E0E6D4146EB060642EAC62141EA55514F
:100680004FEAC52040EA5E504FEACE2EB4F1FD0C91
:1006900088BFBCF5E06F1ED8BEF1004F08BF5FEA0F
:1006A000500E50F1000041EB045170BD06F00046C1
:1006B00046EA010140EA020081EA0301B4EB5C046E
:1006C000C2BFD4EB0C0541EA045170BD41F4801166
:1006D0004FF0000E013C00F3AB8014F1360FDEBF8B
:1006E000002001F0004170BDC4F10004203C35DA67
:1006F0000C341BDC04F11404C4F1200500FA05F3EA
:1007000020FA04F001FA05F240EA020001F000428A
:1007100021F0004110EBD37021FA04F642EB060100
:100720005EEA430E08BF20EAD37070BDC4F10C042A
:10073000C4F1200500FA04F320FA05F001FA04F2EE
:1007400040EA020001F0004110EBD37041F10001DA
:100750005EEA430E08BF20EAD37070BDC4F12005E5
:1007600000FA05F24EEA020E20FA04F301FA05F24D
:1007700043EA020321FA04F001F0004121FA04F2F5
:1007800020EA020000EBD3705EEA430E08BF20EAC5
:10079000D37070BD94F0000F0FD101F000464000FF
:1007A00041EB010111F4801F08BF013CF7D041EA81
:1007B000060195F0000F18BF704703F00046520085
:1007C00043EB030313F4801F08BF013DF7D043EA56
:1007D0000603704794EA0C0F0CEA135518BF95EA0C
:1007E0000C0F0CD050EA410618BF52EA4306D1D193
:1007F00081EA030101F000414FF0000070BD50EAB2
:10080000410606BF1046194652EA430619D094EA3B
:100810000C0F02D150EA013613D195EA0C0F05D125
:1008200052EA03361CBF104619460AD181EA030179
:1008300001F0004141F0FE4141F470014FF0000031
:1008400070BD41F0FE4141F4780170BD70B54FF0CC
:10085000FF0C4CF4E06C1CEA11541DBF1CEA13554C
:1008600094EA0C0F95EA0C0F00F0A7F8A4EB05042E
:1008700081EA030E52EA03354FEA013100F0888025
:100880004FEA03334FF0805545EA131343EA1263EE
:100890004FEA022245EA111545EA10654FEA0026A3
:1008A0000EF000419D4208BF964244F1FD0404F55C
:1008B000407402D25B084FEA3202B61A65EB0305B8
:1008C0005B084FEA32024FF480104FF4002CB6EB75
:1008D000020E75EB030E22BFB61A754640EA0C00F5
:1008E0005B084FEA3202B6EB020E75EB030E22BF35
:1008F000B61A754640EA5C005B084FEA3202B6EB76
:10090000020E75EB030E22BFB61A754640EA9C0034
:100910005B084FEA3202B6EB020E75EB030E22BF04
:10092000B61A754640EADC0055EA060E18D04FEAC2
:10093000051545EA16754FEA06164FEAC30343EA62
:1009400052734FEAC2025FEA1C1CC0D111F4801F2F
:100950000BD141EA00014FF000004FF0004CB6E728
:1009600011F4801F04BF01430020B4F1FD0C88BFC7
:10097000BCF5E06F3FF6AFAEB5EB030C04BFB6EBD2
:10098000020C5FEA500C50F1000041EB045170BDC5
:100990000EF0004E4EEA113114EB5C04C2BFD4EBF2
:1009A0000C0541EA045170BD41F480114FF0000E76
:1009B000013C90E645EA060E8DE60CEA135594EAF2
:1009C0000C0F08BF95EA0C0F3FF43BAF94EA0C0FF5
:1009D0000AD150EA01347FF434AF95EA0C0F7FF46A
:1009E00025AF104619462CE795EA0C0F06D152EABE
:1009F00003353FF4FDAE1046194622E750EA4106A2
:100A000018BF52EA43067FF4C5AE50EA41047FF4B2
:100A10000DAF52EA43057FF4EBAE12E74FF0FF3C17
:100A200006E000BF4FF0010C02E000BF4FF0010CE8
:100A30004DF804CD4FEA410C7FEA6C5C4FEA430C61
:100A400018BF7FEA6C5C1BD001B050EA410C0CBFB0
:100A500052EA430C91EA030F02BF90EA020F002012
:100A6000704710F1000F91EA030F58BF994208BF79
:100A700090422CBFD8176FEAE37040F00100704736
:100A80004FEA410C7FEA6C5C02D150EA013C07D18D
:100A90004FEA430C7FEA6C5CD6D152EA033CD3D0D8
:100AA0005DF8040B704700BF8446104662468C46D2
:100AB0001946634600E000BF01B5FFF7B7FF002805
:100AC00048BF10F1000F01BD4DF808EDFFF7F4FF2E
:100AD0000CBF012000205DF808FB00BF4DF808EDB9
:100AE000FFF7EAFF34BF012000205DF808FB00BFDC
:100AF0004DF808EDFFF7E0FF94BF012000205DF8FE
:100B000008FB00BF4DF808EDFFF7CEFF94BF0120B2
:100B100000205DF808FB00BF4DF808EDFFF7C4FFAB
:100B200034BF012000205DF808FB00BF4FEA410CF4
:100B30007FEA6C5C02D150EA013C0AD14FEA430CD7
:100B40007FEA6C5C02D152EA033C02D14FF0000014
:100B500070474FF0010070474FEA410212F5001252
:100B600015D211D56FF47873B3EB625212D94FEAF4
:100B7000C12343F0004343EA505311F0004F23FADE
:100B800002F018BF404270474FF00000704750EA33
:100B9000013005D111F0004008BF6FF000407047F0
:100BA0004FF00000704700BF4A0011D212F500124A
:100BB00011D20DD56FF47873B3EB62520ED44FEAB5
:100BC000C12343F0004343EA505323FA02F0704735
:100BD0004FF00000704750EA013002D14FF0FF3073
:100BE00070474FF0000070474FEA4102B2F1E04316
:100BF00024BFB3F5001CDCF1FE5C0DD901F0004C04
:100C00004FEAC0024CEA5070B2F1004F40EB830053
:100C100008BF20F00100704711F0804F21D113F17F
:100C20003872BCBF01F00040704741F480114FEAB8
:100C30005252C2F11802C2F1200C10FA0CF320FA41
:100C400002F018BF40F001004FEAC1234FEAD3235E
:100C500003FA0CFC40EA0C0023FA02F34FEA4303C8
:100C6000CCE77FEA625307D150EA01331EBF4FF051
:100C7000FE4040F44000704701F0004040F0FE406C
:100C800040F40000704700BF53B94AB9002908BFBB
:100C900000281CBF4FF0FF314FF0FF3000F0AAB921
:100CA000ADF1080C6DE904CE00F03CF8DDF804E08D
:100CB000DDE9022304B0704738B500220023044662
:100CC0000D46FFF70BFF28B920462946BDE83840FE
:100CD00000F00AB8204605F1004100F005F8404256
:100CE00061EB410138BD00BFD0B50C4B0022064678
:100CF0000F46FFF781FCFFF757FF0446FFF702FCA2
:100D0000074B0022FFF778FC02460B463046394677
:100D1000FFF7BAFAFFF748FF2146D0BD0000F03DCB
:100D20000000F0412DE9F047089D04468E46002B57
:100D30004DD18A42944669D9B2FA82F252B101FA8F
:100D400002F3C2F1200120FA01F10CFA02FC41EA9F
:100D5000030E94404FEA1C48210CBEFBF8F61FFA24
:100D60008CF708FB16E341EA034306FB07F19942BF
:100D70000AD91CEB030306F1FF3080F01F81994272
:100D800040F21C81023E63445B1AA4B2B3FBF8F04C
:100D900008FB103344EA034400FB07F7A7420AD9D3
:100DA0001CEB040400F1FF3380F00A81A74240F2FB
:100DB00007816444023840EA0640E41B00261DB166
:100DC000D4400023C5E900433146BDE8F0878B429B
:100DD00009D9002D00F0EF800026C5E9000130465A
:100DE0003146BDE8F087B3FA83F6002E4AD18B4234
:100DF00002D3824200F2F980841A61EB03030120DE
:100E00009E46002DE0D0C5E9004EDDE702B9FFDEC9
:100E1000B2FA82F2002A40F09280A1EB0C014FEA74
:100E20001C471FFA8CFE0126200CB1FBF7F307FBD1
:100E3000131140EA01410EFB03F0884208D91CEB74
:100E4000010103F1FF3802D2884200F2CB80434611
:100E5000091AA4B2B1FBF7F007FB101144EA0144F0
:100E60000EFB00FEA64508D91CEB040400F1FF317F
:100E700002D2A64500F2BB800846A4EB0E0440EA6D
:100E800003409CE7C6F12007B34022FA07FC4CEA76
:100E9000030C20FA07F401FA06F31C43F9404FEA69
:100EA0001C4900FA06F3B1FBF9F8200C1FFA8CFE7E
:100EB00009FB181140EA014108FB0EF0884202FAD2
:100EC00006F20BD91CEB010108F1FF3A80F0888093
:100ED000884240F28580A8F102086144091AA4B250
:100EE000B1FBF9F009FB101144EA014100FB0EFED1
:100EF0008E4508D91CEB010100F1FF346CD28E4500
:100F00006AD90238614440EA0840A0FB0294A1EB90
:100F10000E01A142C846A64656D353D05DB1B3EBED
:100F2000080261EB0E0101FA07F722FA06F3F1401D
:100F30001F43C5E9007100263146BDE8F087C2F1C4
:100F40002003D8400CFA02FC21FA03F3914001433C
:100F50004FEA1C471FFA8CFEB3FBF7F007FB103675
:100F60000B0C43EA064300FB0EF69E4204FA02F421
:100F700008D91CEB030300F1FF382FD29E422DD974
:100F8000023863449B1B89B2B3FBF7F607FB1633A9
:100F900041EA034106FB0EF38B4208D91CEB010129
:100FA00006F1FF3816D28B4214D9023E6144C91AA9
:100FB00046EA004638E72E46284605E70646E3E6B9
:100FC0001846F8E64B45A9D2B9EB020864EB0C0EC3
:100FD0000138A3E74646EAE7204694E74046D1E7D2
:100FE000D0467BE7023B614432E7304609E7644480
:100FF000023842E7704700BF80B500AF0E4B1B6858
:101000000D4A43F4007313600B4B1B680A4A43F408
:1010100080631360084B1B68074A43F480731360B6
:10102000032000F04FF9002000F008F80CF094FFC6
:101030000023184680BD00BF003C024080B582B04E
:1010400000AF7860124B1A68124B1B7819464FF4A8
:101050007A73B3FBF1F3B2FBF3F3184600F067F9D0
:101060000346002B01D001230EE07B680F2B0AD82A
:10107000002279684FF0FF3000F02FF9064A7B68B4
:101080001360002300E0012318460837BD4680BDE9
:1010900094000020040000200000002080B400AF75
:1010A000064B1B781A46064B1B681344044A136010
:1010B00000BFBD465DF8047B704700BF0400002000
:1010C000EC02002080B400AF034B1B681846BD46FD
:1010D0005DF8047B704700BFEC02002080B584B04F
:1010E00000AF7860FFF7EEFFB8607B68FB60FB68DD
:1010F000B3F1FF3F05D00A4B1B781A46FB68134437
:10110000FB6000BFFFF7DEFF0246BB68D31AFA6838
:101110009A42F7D800BF00BF1037BD4680BD00BF60
:101120000400002080B485B000AF78607B6803F0D5
:101130000703FB600C4BDB68BB60BA684FF6FF032C
:101140001340BB60FB681A02BB68134343F0BF63E4
:1011500043F40033BB60044ABB68D36000BF14375C
:10116000BD465DF8047B704700ED00E080B400AF41
:10117000044BDB681B0A03F007031846BD465DF805
:10118000047B704700ED00E080B483B000AF0346FD
:10119000FB7197F90730002B0BDBFB7903F01F0283
:1011A000074997F907305B09012000FA02F241F87C
:1011B000232000BF0C37BD465DF8047B704700BF9D
:1011C00000E100E080B483B000AF03463960FB71FA
:1011D00097F90730002B0ADB3B68DAB20C4997F924
:1011E00007301201D2B20B4483F800230AE03B68B7
:1011F000DAB20849FB7903F00F03043B1201D2B2C3
:101200000B441A7600BF0C37BD465DF8047B70476F
:1012100000E100E000ED00E080B489B000AFF860CC
:10122000B9607A60FB6803F00703FB61FB69C3F1F7
:101230000703042B28BF0423BB61FB690433062B7F
:1012400002D9FB69033B00E000237B614FF0FF32D2
:10125000BB6902FA03F3DA43BB681A407B699A4020
:101260004FF0FF317B6901FA03F3D9437B680B40F0
:10127000134318462437BD465DF8047B70470000D1
:1012800080B582B000AF78607B68013BB3F1807FAE
:1012900001D301230FE00A4A7B68013B53600F2111
:1012A0004FF0FF30FFF78EFF054B00229A60044B92
:1012B00007221A60002318460837BD4680BD00BFCC
:1012C00010E000E080B582B000AF78607868FFF78A
:1012D00029FF00BF0837BD4680BD80B586B000AF8E
:1012E0000346B9607A60FB7300237B61FFF73EFF22
:1012F00078617A68B9687869FFF78EFF024697F9D6
:101300000F3011461846FFF75DFF00BF1837BD4686
:1013100080BD80B582B000AF0346FB7197F90730FE
:101320001846FFF731FF00BF0837BD4680BD80B5C6
:1013300082B000AF78607868FFF7A2FF03461846D6
:101340000837BD4680BD000080B586B000AF78602C
:1013500000237B61FFF7B6FE38617B68002B01D16B
:10136000012399E07B68022283F835207B68002204
:1013700083F834207B681B681A687B681B6822F03E
:1013800001021A600FE0FFF79DFE02463B69D31A87
:10139000052B08D97B6820225A657B68032283F8D5
:1013A0003520032378E07B681B681B6803F001038A
:1013B000002BE8D17B681B681B687B617A69384B1E
:1013C00013407B617B685A687B689B681A437B6823
:1013D000DB681A437B681B691A437B685B691A43A5
:1013E0007B689B691A437B68DB691A437B681B6ACD
:1013F00013437A6913437B617B685B6A042B07D1D3
:101400007B68DA6A7B681B6B13437A6913437B61E1
:101410007B681B687A691A607B681B685B697B6103
:101420007B6923F007037B617B685B6A7A691343FE
:101430007B617B685B6A042B17D17B689B6A7A6946
:1014400013437B617B68DB6A002B0ED0786800F069
:1014500089FA0346002B08D07B6840225A657B68D6
:10146000012283F83520012316E07B681B687A6926
:101470005A61786800F040FA0346FB607B68DB6DD8
:101480003F229A40FB689A607B6800225A657B681D
:10149000012283F83520002318461837BD4680BD49
:1014A0003F8010F080B584B000AF78607B689B6DA2
:1014B000FB60FFF707FEB8607B6893F83530DBB25E
:1014C000022B08D07B6880225A657B68002283F853
:1014D0003420012352E07B681B681A687B681B6814
:1014E00022F016021A607B681B685A697B681B68C9
:1014F00022F080025A617B681B6C002B03D17B6851
:101500009B6C002B07D07B681B681A687B681B6884
:1015100022F008021A607B681B681A687B681B68E7
:1015200022F001021A6013E0FFF7CCFD0246BB680F
:10153000D31A052B0CD97B6820225A657B680322BD
:1015400083F835207B68002283F83420032315E0DC
:101550007B681B681B6803F00103002BE4D17B68E8
:10156000DB6D3F229A40FB689A607B68012283F81A
:1015700035207B68002283F834200023184610377A
:10158000BD4680BD80B483B000AF78607B6893F8BF
:101590003530DBB2022B04D07B6880225A650123F0
:1015A0000CE07B68052283F835207B681B681A688D
:1015B0007B681B6822F001021A60002318460C3772
:1015C000BD465DF8047B704780B586B000AF78609B
:1015D0000023BB608E4B1B688E4AA2FB03239B0A31
:1015E0007B617B689B6D3B613B691B68FB607B6833
:1015F000DB6D08229A40FB681340002B1AD07B68F1
:101600001B681B6803F00403002B13D07B681B6866
:101610001A687B681B6822F004021A607B68DB6D25
:1016200008229A403B699A607B685B6D43F0010237
:101630007B685A657B68DB6D01229A40FB6813402A
:10164000002B12D07B681B685B6903F08003002BC2
:101650000BD07B68DB6D01229A403B699A607B6806
:101660005B6D43F002027B685A657B68DB6D042288
:101670009A40FB681340002B12D07B681B681B68E4
:1016800003F00203002B0BD07B68DB6D04229A4031
:101690003B699A607B685B6D43F004027B685A6526
:1016A0007B68DB6D10229A40FB681340002B43D00F
:1016B0007B681B681B6803F00803002B3CD07B6829
:1016C000DB6D10229A403B699A607B681B681B683F
:1016D00003F48023002B18D07B681B681B6803F47D
:1016E0000023002B08D17B681B6C002B24D07B6867
:1016F0001B6C786898471FE07B689B6C002B1BD0A5
:101700007B689B6C7868984716E07B681B681B6851
:1017100003F48073002B07D17B681B681A687B6811
:101720001B6822F008021A607B681B6C002B03D038
:101730007B681B6C786898477B68DB6D20229A4039
:10174000FB681340002B00F08F807B681B681B68D0
:1017500003F01003002B00F087807B68DB6D2022F4
:101760009A403B699A607B6893F83530DBB2052B71
:1017700036D17B681B681A687B681B6822F01602EA
:101780001A607B681B685A697B681B6822F08002BC
:101790005A617B681B6C002B03D17B689B6C002B10
:1017A00007D07B681B681A687B681B6822F00802F8
:1017B0001A607B68DB6D3F229A403B699A607B68C8
:1017C000012283F835207B68002283F834207B686F
:1017D0001B6D002B7ED07B681B6D7868984779E085
:1017E0007B681B681B6803F48023002B1DD07B687B
:1017F0001B681B6803F40023002B0DD17B685B6C16
:10180000002B31D07B685B6C786898472CE000BF78
:1018100094000020B5814E1B7B68DB6B002B23D02E
:101820007B68DB6B786898471EE07B681B681B68E9
:1018300003F48073002B0FD17B681B681A687B68E8
:101840001B6822F010021A607B68012283F83520A1
:101850007B68002283F834207B68DB6B002B03D08D
:101860007B68DB6B786898477B685B6D002B32D0B8
:101870007B685B6D03F00103002B22D07B6805229F
:1018800083F835207B681B681A687B681B6822F028
:1018900001021A60BB680133BB607A699A4207D3C0
:1018A0007B681B681B6803F00103002BF2D100E08A
:1018B00000BF7B68012283F835207B68002283F813
:1018C00034207B68DB6C002B05D07B68DB6C786890
:1018D000984700E000BF1837BD4680BD80B483B094
:1018E00000AF78607B6893F83530DBB218460C3770
:1018F000BD465DF8047B704780B485B000AF78606A
:101900007B681B68DBB2103B144AA2FB03231B0954
:10191000FB60134AFB6813441B781A467B68DA6540
:10192000FB68032B09D97B681B6823F47F7323F0C2
:1019300003031A1D7B689A6507E07B681B6823F424
:101940007F7323F003037A6893657B689B6D184669
:101950001437BD465DF8047B704700BFABAAAAAA46
:10196000B8F7010880B485B000AF78600023FB733E
:101970007B689B6ABB607B689B69002B1FD1BB683F
:10198000032B56D801A252F823F000BF9D1900087E
:10199000AF1900089D190008331A00087B68DB6A3C
:1019A00003F08073002B46D00123FB7343E07B6878
:1019B000DB6AB3F1C07F40D10123FB733DE07B685C
:1019C0009B69B3F5005F21D1BB68032B37D801A217
:1019D00052F823F0E5190008EB190008E519000892
:1019E000FD1900080123FB7330E07B68DB6A03F01C
:1019F0008073002B25D00123FB7322E07B68DB6A18
:101A0000B3F1C07F1FD10123FB731CE0BB68022B25
:101A100003D9BB68032B03D018E00123FB7315E047
:101A20007B68DB6A03F08073002B0ED00123FB730D
:101A30000BE000BF0AE000BF08E000BF06E000BF07
:101A400004E000BF02E000BF00E000BFFB7B1846DF
:101A50001437BD465DF8047B704700BF80B489B081
:101A600000AF7860396000237B6100233B61002375
:101A7000BB610023FB616BE10122FB6902FA03F306
:101A80007B613B681B687A6913403B613A697B69FB
:101A90009A4240F05A813B685B6803F00303012BD4
:101AA00005D03B685B6803F00303022B30D17B68F1
:101AB0009B68BB61FB695B00032202FA03F3DB4313
:101AC000BA691340BB613B68DA68FB695B0002FAE4
:101AD00003F3BA691343BB617B68BA699A607B6898
:101AE0005B68BB610122FB6902FA03F3DB43BA695D
:101AF0001340BB613B685B681B0903F00102FB6993
:101B000002FA03F3BA691343BB617B68BA695A608E
:101B10003B685B6803F00303032B17D07B68DB682B
:101B2000BB61FB695B00032202FA03F3DB43BA6982
:101B30001340BB613B689A68FB695B0002FA03F3E0
:101B4000BA691343BB617B68BA69DA603B685B685A
:101B500003F00303022B23D1FB69DA087B68083208
:101B600053F82230BB61FB6903F007039B000F228F
:101B700002FA03F3DB43BA691340BB613B681A699D
:101B8000FB6903F007039B0002FA03F3BA691343EE
:101B9000BB61FB69DA087B680832B96943F8221037
:101BA0007B681B68BB61FB695B00032202FA03F3DD
:101BB000DB43BA691340BB613B685B6803F0030217
:101BC000FB695B0002FA03F3BA691343BB617B68EC
:101BD000BA691A603B685B6803F44033002B00F07D
:101BE000B4800023FB60604B5B6C5F4A43F480432E
:101BF00053645D4B5B6C03F48043FB60FB685B4AA2
:101C0000FB699B08023352F82330BB61FB6903F088
:101C100003039B000F2202FA03F3DB43BA6913406C
:101C2000BB617B68524A93422BD07B68514A9342F6
:101C300025D07B68504A93421FD07B684F4A93421D
:101C400019D07B684E4A934213D07B684D4A934229
:101C50000DD07B684C4A934207D07B684B4A934235
:101C600001D107230EE008230CE006230AE0052338
:101C700008E0042306E0032304E0022302E001233A
:101C800000E00023FA6902F0030292009340BA696F
:101C90001343BB613549FB699B080233BA6941F8BC
:101CA00023203B4B9B68BB613B69DB43BA69134014
:101CB000BB613B685B6803F48013002B03D0BA69F7
:101CC0003B691343BB61324ABB699360304BDB68AD
:101CD000BB613B69DB43BA691340BB613B685B682E
:101CE00003F40013002B03D0BA693B691343BB61B3
:101CF000274ABB69D360264B5B68BB613B69DB430A
:101D0000BA691340BB613B685B6803F40033002B86
:101D100003D0BA693B691343BB611D4ABB69536079
:101D20001B4B1B68BB613B69DB43BA691340BB615A
:101D30003B685B6803F48033002B03D0BA693B69CE
:101D40001343BB61124ABB691360FB690133FB613A
:101D5000FB690F2B7FF690AE00BF00BF2437BD4656
:101D60005DF8047B704700BF003802400038014036
:101D7000000002400004024000080240000C024043
:101D8000001002400014024000180240001C0240F3
:101D9000003C014080B485B000AF78600B467B808A
:101DA0007B681A697B881340002B02D00123FB73E8
:101DB00001E00023FB73FB7B18461437BD465DF83A
:101DC000047B704780B483B000AF78600B467B80A3
:101DD00013467B707B78002B03D07A887B689A61EE
:101DE00003E07B881A047B689A6100BF0C37BD460C
:101DF0005DF8047B7047000080B582B000AF0346F9
:101E0000FB80084B5A69FB881340002B06D0054A1B
:101E1000FB885361FB8818460BF0BCFE00BF0837F7
:101E2000BD4680BD003C014080B584B000AF786005
:101E30007B68002B01D101232BE17B6893F83D30B7
:101E4000DBB2002B06D17B68002283F83C20786847
:101E50000BF06EF87B68242283F83D207B681B68BA
:101E60001A687B681B6822F001021A607B681B6895
:101E70001A687B681B6842F400421A607B681B6822
:101E80001A687B681B6822F400421A6004F072FC36
:101E9000F8607B685B68814A934207D8FB68804A98
:101EA000934294BF01230023DBB206E0FB687D4A26
:101EB000934294BF01230023DBB2002B01D0012306
:101EC000E7E0FB68784AA2FB03239B0CBB607B68BE
:101ED0001B685B6823F03F017B681B68BA680A4394
:101EE0005A607B681B681B6A23F03F017B685B6854
:101EF0006A4A934202D8BB68013309E0BB684FF4D9
:101F0000967202FB03F3694AA2FB03239B09013388
:101F10007A6812680B4313627B681B68DB6923F4E1
:101F20004F4222F0FF027B685B685C498B4219D804
:101F3000FB68591E7B685B685B00B1FBF3F3591CBF
:101F400040F6FC730B40002B0AD0FB68591E7B68DF
:101F50005B685B00B1FBF3F30133C3F30B0351E0A8
:101F600004234FE07B689B68002B11D1FB68581E4F
:101F70007B6859680B465B000B44B0FBF3F30133FD
:101F8000C3F30B03002B0CBF01230023DBB212E0D1
:101F9000FB68581E7B6859680B469B000B449900F0
:101FA0000B44B0FBF3F30133C3F30B03002B0CBF63
:101FB00001230023DBB2002B01D0012322E07B6848
:101FC0009B68002B0ED1FB68581E7B6859680B4636
:101FD0005B000B44B0FBF3F30133C3F30B0343F497
:101FE00000430FE0FB68581E7B6859680B469B0056
:101FF0000B4499000B44B0FBF3F30133C3F30B0321
:1020000043F44043796809681343CB617B681B68DC
:102010001B6823F0C0017B68DA697B681B6A1A437E
:102020007B681B680A431A607B681B689B6823F403
:10203000034323F0FF037A6811697A68D268114379
:102040007A6812680B4393607B681B68DB6823F037
:10205000FF017B685A697B689B691A437B681B6830
:102060000A43DA607B681B681A687B681B6842F069
:1020700001021A607B6800221A647B68202283F8C0
:102080003D207B6800221A637B68002283F83E2093
:10209000002318461037BD4680BD00BFA086010052
:1020A0007F841E00FF083D0083DE1B43D34D62107A
:1020B00080B588B002AFF8607A601A460B467B8123
:1020C00013463B81FEF7FEFF7861FB6893F83D30D5
:1020D000DBB2202B40F0E0807B69009319230122C2
:1020E0007049F86802F01CFA0346002B01D0022365
:1020F000D3E0FB6893F83C30012B01D10223CCE004
:10210000FB68012283F83C20FB681B681B6803F016
:102110000103012B07D0FB681B681A68FB681B686A
:1021200042F001021A60FB681B681A68FB681B68B2
:1021300022F400621A60FB68212283F83D20FB68CC
:10214000102283F83E20FB6800221A64FB687A683C
:102150005A62FB683A895A85FB685B8D9AB2FB68C4
:102160001A85FB68504ADA6279897B693A6AF868AD
:1021700001F0DEFF0346002B01D001238DE0002398
:102180003B61FB681B685B693B61FB681B689B6983
:102190003B613B6966E07A69396AF86802F096FA51
:1021A0000346002B0DD0FB681B6C042B07D1FB688A
:1021B0001B681A68FB681B6842F400721A600123EE
:1021C0006BE0FB685B6A1A78FB681B681A61FB6846
:1021D0005B6A5A1CFB685A62FB685B8D9BB2013BD1
:1021E0009AB2FB685A85FB681B8D013B9AB2FB686B
:1021F0001A85FB681B685B6903F00403042B1BD181
:10220000FB681B8D002B17D0FB685B6A1A78FB6894
:102210001B681A61FB685B6A5A1CFB685A62FB68A0
:102220005B8D9BB2013B9AB2FB685A85FB681B8DA4
:10223000013B9AB2FB681A857A69396AF86802F03C
:1022400086FA0346002B0DD0FB681B6C042B07D1CC
:10225000FB681B681A68FB681B6842F400721A600E
:1022600001231AE0FB681B8D002B94D1FB681B68CF
:102270001A68FB681B6842F400721A60FB6820222F
:1022800083F83D20FB68002283F83E20FB68002293
:1022900083F83C20002300E0022318461837BD468F
:1022A00080BD00BF020010000000FFFF80B58CB0B1
:1022B00002AFF8607A601A460B467B8113463B8179
:1022C000FEF700FF7862FB6893F83D30DBB2202B0D
:1022D00040F00B827B6A0093192301227C49F86845
:1022E00002F01EF90346002B01D00223FEE1FB6839
:1022F00093F83C30012B01D10223F7E1FB68012266
:1023000083F83C20FB681B681B6803F00103012B6A
:1023100007D0FB681B681A68FB681B6842F0010263
:102320001A60FB681B681A68FB681B6822F400626D
:102330001A60FB68222283F83D20FB68102283F894
:102340003E20FB6800221A64FB687A685A62FB68C8
:102350003A895A85FB685B8D9AB2FB681A85FB68DF
:102360005C4ADA6279897B6A3A6BF86801F062FF4D
:102370000346002B01D00123B8E1FB681B8D002B25
:1023800013D100233B62FB681B685B693B62FB68FF
:102390001B689B693B623B6AFB681B681A68FB68A9
:1023A0001B6842F400721A608CE1FB681B8D012BE4
:1023B0001BD1FB681B681A68FB681B6822F48062EB
:1023C0001A600023FB61FB681B685B69FB61FB68AB
:1023D0001B689B69FB61FB69FB681B681A68FB68EB
:1023E0001B6842F400721A606CE1FB681B8D022BC3
:1023F0001BD1FB681B681A68FB681B6822F48062AB
:102400001A60FB681B681A68FB681B6842F400626C
:102410001A600023BB61FB681B685B69BB61FB68DA
:102420001B689B69BB61BB694CE1FB681B681A6850
:10243000FB681B6842F480621A6000237B61FB68C2
:102440001B685B697B61FB681B689B697B617B69BF
:1024500038E1FB681B8D032B00F2F180FB681B8DBC
:10246000012B23D17A6A396BF86802F0E3F903464D
:10247000002B01D0012339E1FB681B681A69FB6856
:102480005B6AD2B21A70FB685B6A5A1CFB685A62BC
:10249000FB681B8D013B9AB2FB681A85FB685B8D5C
:1024A0009BB2013B9AB2FB685A850BE1FB681B8D1E
:1024B000022B4ED17B6A00933B6B00220649F868E1
:1024C00002F02EF80346002B08D001230EE100BFD6
:1024D000020010000000FFFF04000100FB681B6801
:1024E0001A68FB681B6842F400721A60FB681B687C
:1024F0001A69FB685B6AD2B21A70FB685B6A5A1C85
:10250000FB685A62FB681B8D013B9AB2FB681A8517
:10251000FB685B8D9BB2013B9AB2FB685A85FB68F6
:102520001B681A69FB685B6AD2B21A70FB685B6A47
:102530005A1CFB685A62FB681B8D013B9AB2FB6810
:102540001A85FB685B8D9BB2013B9AB2FB685A858A
:10255000B8E07B6A00933B6B00226649F86801F0A3
:10256000DFFF0346002B01D00123BFE0FB681B689F
:102570001A68FB681B6822F480621A60FB681B689B
:102580001A69FB685B6AD2B21A70FB685B6A5A1CF4
:10259000FB685A62FB681B8D013B9AB2FB681A8587
:1025A000FB685B8D9BB2013B9AB2FB685A857B6AE4
:1025B00000933B6B00224F49F86801F0B1FF0346DE
:1025C000002B01D0012391E0FB681B681A68FB68AF
:1025D0001B6842F400721A60FB681B681A69FB688A
:1025E0005B6AD2B21A70FB685B6A5A1CFB685A625B
:1025F000FB681B8D013B9AB2FB681A85FB685B8DFB
:102600009BB2013B9AB2FB685A85FB681B681A694A
:10261000FB685B6AD2B21A70FB685B6A5A1CFB6883
:102620005A62FB681B8D013B9AB2FB681A85FB68F6
:102630005B8D9BB2013B9AB2FB685A8542E07A6A95
:10264000396BF86802F0F6F80346002B01D001233D
:102650004CE0FB681B681A69FB685B6AD2B21A70AF
:10266000FB685B6A5A1CFB685A62FB681B8D013B66
:102670009AB2FB681A85FB685B8D9BB2013B9AB2EC
:10268000FB685A85FB681B685B6903F00403042B35
:1026900018D1FB681B681A69FB685B6AD2B21A70B2
:1026A000FB685B6A5A1CFB685A62FB681B8D013B26
:1026B0009AB2FB681A85FB685B8D9BB2013B9AB2AC
:1026C000FB685A85FB681B8D002B7FF4C2AEFB684C
:1026D000202283F83D20FB68002283F83E20FB681F
:1026E000002283F83C20002300E00223184628370C
:1026F000BD4680BD0400010080B487B000AFF86023
:102700007A601A460B467B8113463B8100237B612E
:10271000FB6893F83D30DBB2202B40F08580464BC0
:102720001B68DB08454AA2FB03231A0A13469B00D9
:1027300013449A0013447B617B69013B7B617B6995
:10274000002B16D1FB6800221A63FB68202283F855
:102750003D20FB68002283F83E20FB681B6C43F0A1
:102760002002FB681A64FB68002283F83C200123E6
:102770005BE0FB681B689B6903F00203022BDBD064
:10278000FB6893F83C30012B01D102234DE0FB683C
:10279000012283F83C20FB681B681B6803F00103DF
:1027A000012B07D0FB681B681A68FB681B6842F0A6
:1027B00001021A60FB681B681A68FB681B6822F438
:1027C00000621A60FB68212283F83D20FB6810221A
:1027D00083F83E20FB6800221A64FB687A685A621C
:1027E000FB683A895A85FB685B8D9AB2FB681A854B
:1027F000FB68134ADA627A89FB685A64FB68002234
:1028000083F83C20FB681B685A68FB681B6842F42D
:10281000E0625A60FB681B681A68FB681B6842F438
:1028200080721A60002300E0022318461C37BD4660
:102830005DF8047B704700BF9400002089B5F81450
:102840000000FFFF80B487B000AFF8607A601A46DE
:102850000B467B8113463B8100237B61FB6893F829
:102860003D30DBB2202B40F08D804A4B1B68DB08EB
:10287000494AA2FB03231A0A13469B0013449A00F9
:1028800013447B617B69013B7B617B69002B16D123
:10289000FB6800221A63FB68202283F83D20FB6856
:1028A000002283F83E20FB681B6C43F02002FB688B
:1028B0001A64FB68002283F83C20012363E0FB6874
:1028C0001B689B6903F00203022BDBD0FB6893F8C3
:1028D0003C30012B01D1022355E0FB68012283F833
:1028E0003C20FB681B681B6803F00103012B07D029
:1028F000FB681B681A68FB681B6842F001021A60DB
:10290000FB681B681A68FB681B6822F400621A6087
:10291000FB68222283F83D20FB68102283F83E20CA
:10292000FB6800221A64FB687A685A62FB683A897D
:102930005A85FB685B8D9AB2FB681A85FB68174A5B
:10294000DA627A89FB685A64FB68002283F83C20CB
:10295000FB681B685A68FB681B6842F4E0625A60B7
:10296000FB681B681A68FB681B6842F480621A6087
:10297000FB681B681A68FB681B6842F480721A6067
:10298000002300E0022318461C37BD465DF8047B97
:10299000704700BF9400002089B5F8140000FFFFC5
:1029A00080B588B000AF78600023BB617B681B688E
:1029B0005B687B617B68DB6A3B617B6893F83E30D8
:1029C000FB737B6893F83D30BB73FB7B102B03D00C
:1029D000FB7B402B40F0C1807B681B689B69BB611F
:1029E0007B681B685B69FB61FB6903F00103002BDB
:1029F0000DD13B69B3F52A0F03D03B69B3F12A4FE0
:102A000001D1012300E00023012B00F03281FB699A
:102A100003F00103002B0CD07B695B0A03F0010378
:102A2000002B06D0786801F08AFF786800F065FD19
:102A300092E0FB69DB0803F00103002B09D07B69FE
:102A40005B0A03F00103002B03D0786800F0DBFD84
:102A500082E0FB695B0803F00103002B09D07B696E
:102A60005B0A03F00103002B03D0786800F0F5FD4A
:102A700072E0BB699B0803F00103002B3BD07B682D
:102A80001B685B6803F40063B3F5006F00F0F3802C
:102A9000FB69DB0903F00103002B0FD07B699B0A64
:102AA00003F00103002B09D0FB699B0803F001032D
:102AB000002B03D1786800F0D5F94DE0FB699B0845
:102AC00003F00103002B00F0D6807B695B0A03F062
:102AD0000103002B00F0CF80BB7B212B03D1786852
:102AE00000F05CFAC7E0FB7B402B40F0C4807868C4
:102AF00000F0CAFABFE07B681B685B6803F4006300
:102B0000B3F5006F00F0B780FB699B0903F0010388
:102B1000002B0FD07B699B0A03F00103002B09D027
:102B2000FB699B0803F00103002B03D1786800F0D8
:102B30003FFB11E0FB699B0803F00103002B00F051
:102B40009A807B695B0A03F00103002B00F09380FD
:102B5000786800F0E8FB8EE08DE07B681B6C002B52
:102B600004D07B681B685B69FB6107E07B681B68BE
:102B70009B69BB617B681B685B69FB61FB695B08E8
:102B800003F00103002B12D07B695B0A03F0010301
:102B9000002B0CD07B681B6C002B03D07B681B6860
:102BA0009B69BB61B969786800F0A6FF66E0FB69C4
:102BB0001B0903F00103002B09D07B695B0A03F0BA
:102BC0000103002B03D0786800F0E0FF56E0BB7BE8
:102BD000212B02D0BB7B292B25D1FB69DB0903F01C
:102BE0000103002B0FD07B699B0A03F00103002B2C
:102BF00009D0FB699B0803F00103002B03D178681F
:102C000000F0BCFE39E0FB699B0803F00103002BD8
:102C100033D07B695B0A03F00103002B2DD0786869
:102C200000F0E9FE29E0FB699B0903F00103002B9A
:102C30000FD07B699B0A03F00103002B09D0FB69CD
:102C40009B0803F00103002B03D1786800F0F4FE29
:102C500014E0FB699B0803F00103002B0ED07B6995
:102C60005B0A03F00103002B08D0786800F022FF14
:102C700004E000BF02E000BF00E000BF2037BD4617
:102C800080BD80B58AB000AF78607B681B685B69E7
:102C90003B627B681B685B68FB6100237B627B682F
:102CA00093F83E30FB763B6A1B0A03F00103002BCE
:102CB0000ED0FB691B0A03F00103002B08D07B6ACE
:102CC00043F001037B627B681B686FF480725A617A
:102CD0003B6A5B0A03F00103002B0ED0FB691B0A61
:102CE00003F00103002B08D07B6A43F002037B62F0
:102CF0007B681B686FF400725A613B6A9B0A03F0A1
:102D00000103002B3FD0FB691B0A03F00103002BDA
:102D100039D0FB7EBB767B685B8D9BB27B617B6829
:102D200093F83D30FB747B681B6BFB60BB7E202BF4
:102D300012D17B69002B0FD1FB7C212B08D0FB7CAF
:102D4000292B05D0FB7C282B06D1FB68212B03D136
:102D5000786801F04BF816E07B681B686FF48062BE
:102D60005A617B6A43F004037B62FB7E102B02D026
:102D7000FB7E402B07D17B681B681A687B681B6849
:102D800042F400721A603B6ADB0A03F00103002B75
:102D90000ED0FB691B0A03F00103002B08D07B6AED
:102DA00043F008037B627B681B686FF400625A6122
:102DB0007B6A002B08D07B681A6C7B6A1A437B689D
:102DC0001A64786801F082F800BF2837BD4680BDDC
:102DD00080B483B000AF786000BF0C37BD465DF8AB
:102DE000047B704780B483B000AF786000BF0C37BD
:102DF000BD465DF8047B704780B483B000AF786057
:102E00000B46FB7013463B8000BF0C37BD465DF898
:102E1000047B704780B483B000AF786000BF0C378C
:102E2000BD465DF8047B704780B483B000AF786026
:102E300000BF0C37BD465DF8047B704780B483B09B
:102E400000AF786000BF0C37BD465DF8047B70476B
:102E500080B483B000AF786000BF0C37BD465DF82A
:102E6000047B704780B584B000AF78607B6893F8CE
:102E70003D30FB737B6893F83E30BB737B68DB6A45
:102E8000BB607B681B8D002B50D1FB7B212B4DD170
:102E9000BB68082B1DD0BB68202B1AD0BB6813F56C
:102EA000803F16D07B681B685A687B681B6822F4D9
:102EB000E0625A607B6811221A637B68002283F803
:102EC0003E207B68202283F83D2078680AF002FECD
:102ED00060E07B681B685A687B681B6822F4E062CC
:102EE0005A607B681B681A687B681B6842F4007232
:102EF0001A607B6800221A637B68202283F83D20D9
:102F00007B6893F83E30DBB2402B07D17B68002210
:102F100083F83E207868FFF787FF3BE07B6800225C
:102F200083F83E2078680AF0D5FD33E0FB7B212B47
:102F300005D0BB7B402B2DD1FB7B222B2AD17B687C
:102F40005B8D9BB2002B08D17B681B685A687B683D
:102F50001B6822F480625A601CE07B6893F83E3064
:102F6000DBB2402B03D1786800F08EF812E07B686A
:102F70005B6A1A787B681B681A617B685B6A5A1CFB
:102F80007B685A627B685B8D9BB2013B9AB27B681F
:102F90005A85FFE700BF1037BD4680BD80B584B0BD
:102FA00000AF78607B68DB6AFB607B6893F83D303C
:102FB000DBB2212B64D17B685B8D9BB2002B12D0DE
:102FC0007B685B6A1A787B681B681A617B685B6A3E
:102FD0005A1C7B685A627B685B8D9BB2013B9AB23C
:102FE0007B685A854CE0FB68082B1DD0FB68202BC2
:102FF0001AD0FB6813F5803F16D07B681B685A68AF
:103000007B681B6822F4E0625A607B6811221A63B5
:103010007B68002283F83E207B68202283F83D20D5
:1030200078680AF057FD2BE07B681B685A687B685C
:103030001B6822F4E0625A607B681B681A687B6830
:103040001B6842F400721A607B6800221A637B6876
:10305000202283F83D207B6893F83E30DBB2402B82
:1030600007D17B68002283F83E207868FFF7DCFEFA
:1030700006E07B68002283F83E2078680AF02AFD8B
:1030800000BF1037BD4680BD80B584B000AF78600A
:103090007B6893F83D30FB737B681B6D002B1DD163
:1030A0007B68DB6C012B0BD17B689B6CDAB27B6895
:1030B0001B681A617B681B6D9A1C7B681A6573E03C
:1030C0007B689B6C9BB21B12DAB27B681B681A612F
:1030D0007B681B6D5A1C7B681A6565E07B681B6DFD
:1030E000012B0BD17B689B6CDAB27B681B681A6181
:1030F0007B681B6D5A1C7B681A6555E07B681B6DED
:10310000022B51D1FB7B222B0DD17B681B681A68E7
:103110007B681B6842F480721A607B681B6D5A1CC6
:103120007B681A6540E07B685B8D9BB2002B15D0F5
:10313000FB7B212B12D17B685B6A1A787B681B684A
:103140001A617B685B6A5A1C7B685A627B685B8D7C
:103150009BB2013B9AB27B685A8525E07B685B8D08
:103160009BB2002B20D1FB7B212B1DD17B681B68E0
:103170005A687B681B6822F4E0625A607B681B68AF
:103180001A687B681B6842F400721A607B68002230
:103190001A637B68202283F83D207B68002283F835
:1031A0003E207868FFF740FE00BF1037BD4680BD67
:1031B00080B584B000AF78607B6893F83D30DBB2B7
:1031C000222B40F0AC807B685B8D9BB2FB60FB6880
:1031D000032B21D97B681B681A697B685B6AD2B2B2
:1031E0001A707B685B6A5A1C7B685A627B685B8DCD
:1031F0009BB2013B9AB27B685A857B685B8D9BB220
:10320000032B40F08C807B681B685A687B681B68C6
:1032100022F480625A6082E07B68DB6A022B75D000
:10322000FB68012B02D0FB68002B6FD1786801F09E
:10323000CFFA0346002B42D17B681B681A687B6873
:103240001B6822F480621A607B681B685A687B687E
:103250001B6822F4E0625A607B681B681A697B680D
:103260005B6AD2B21A707B685B6A5A1C7B685A62CE
:103270007B685B8D9BB2013B9AB27B685A857B6809
:10328000202283F83D207B6893F83E30DBB2402B50
:103290000AD17B68002283F83E207B6800221A63F3
:1032A0007868FFF7CBFD3AE07B68002283F83E2088
:1032B0007B6812221A6378680AF02CFC2FE07B6886
:1032C0001B685A687B681B6822F4E0625A607B685E
:1032D0001B681A697B685B6AD2B21A707B685B6A8A
:1032E0005A1C7B685A627B685B8D9BB2013B9AB229
:1032F0007B685A857B68202283F83D207B6800220A
:1033000083F83E2078680AF025FC08E07B681B689B
:103310005A687B681B6822F480625A60FFE700BF2E
:103320001037BD4680BD80B584B000AF78607B6843
:10333000DB6AFB607B685B8D9BB2042B1BD17B68D7
:103340001B685A687B681B6822F480625A607B683D
:103350001B681A697B685B6AD2B21A707B685B6A09
:103360005A1C7B685A627B685B8D9BB2013B9AB2A8
:103370007B685A85BDE07B685B8D9BB2032B29D1AE
:103380007B681B685A687B681B6822F480625A60FD
:10339000FB68042B0AD0FB68022B07D07B681B68F4
:1033A0001A687B681B6822F480621A607B681B685D
:1033B0001A697B685B6AD2B21A707B685B6A5A1CB6
:1033C0007B685A627B685B8D9BB2013B9AB27B68DB
:1033D0005A858EE07B685B8D9BB2022B76D1FB68B1
:1033E000012B02D0FB68102B08D17B681B681A6880
:1033F0007B681B6822F480621A6019E0FB68042B6A
:1034000002D0FB68022B08D17B681B681A687B68B6
:103410001B6842F480621A600AE0FB68102B07D038
:103420007B681B681A687B681B6842F400721A602C
:103430007B681B681A697B685B6AD2B21A707B680A
:103440005B6A5A1C7B685A627B685B8D9BB2013B4E
:103450009AB27B685A857B681B681A697B685B6ACD
:10346000D2B21A707B685B6A5A1C7B685A627B68AE
:103470005B8D9BB2013B9AB27B685A857B681B6867
:103480005A687B681B6822F440725A607B6820226D
:1034900083F83D207B6893F83E30DBB2402B0AD1A5
:1034A0007B68002283F83E207B6800221A637868DC
:1034B000FFF7C4FC1DE07B68002283F83E207B6898
:1034C00012221A6378680AF025FB12E07B681B68F9
:1034D0001A697B685B6AD2B21A707B685B6A5A1C95
:1034E0007B685A627B685B8D9BB2013B9AB27B68BA
:1034F0005A8500BF1037BD4680BD80B483B000AF91
:1035000078607B6893F83E30DBB2402B17D17B6844
:103510001B6D002B09D17B685B6CDBB21A467B68A4
:103520001B6802F0FE021A6167E07B685B6CDBB22D
:1035300043F00103DAB27B681B681A615DE07B68C7
:103540001B69B3F5804F33D17B6893F83D30DBB214
:10355000212B09D17B685B6CDBB21A467B681B6848
:1035600002F0FE021A6108E07B685B6CDBB243F09C
:103570000103DAB27B681B681A617B685B6B002B06
:1035800004D07B685B6BDB6B002B08D17B689B6B8B
:10359000002B32D07B689B6BDB6B002B2DD07B68C4
:1035A0001B685A687B681B6842F400625A6024E01A
:1035B0007B681B6D002B0ED17B685B6C9BB2DB11B3
:1035C000DBB203F00603DBB263F00F03DAB27B6811
:1035D0001B681A6111E07B681B6D012B0DD17B68A4
:1035E0005B6C9BB2DB11DBB203F00603DBB263F072
:1035F0000E03DAB27B681B681A6100BF0C37BD4648
:103600005DF8047B704780B483B000AF78607B685E
:103610005B6CDAB27B681B681A617B685B6B002BA2
:1036200004D07B685B6BDB6B002B08D17B689B6BEA
:10363000002B0CD07B689B6BDB6B002B07D07B686F
:103640001B685A687B681B6842F400625A6000BFBE
:103650000C37BD465DF8047B704780B491B000AF75
:1036600078607B6893F83E3087F83F307B68DB6A90
:10367000BB637B681B6B7B637B6893F83D30DBB27D
:10368000222B40F069817B681B6D002B0FD197F8CE
:103690003F30402B0BD100233B637B681B685B6989
:1036A0003B637B681B689B693B633B6B60E17B68AA
:1036B0001B6D002B1DD17B681B69B3F5404F18D1E2
:1036C0000023FB627B681B685B69FB627B681B688D
:1036D0009B69FB62FB6A7B681B681A687B681B68D6
:1036E00042F480721A607B681B6D5A1C7B681A65F5
:1036F0003EE17B685B8D9BB2002B13D10023BB6244
:103700007B681B685B69BB627B681B689B69BB62EB
:10371000BB6A7B681B681A687B681B6842F400728E
:103720001A6015E17B685B8D9BB2012B40F08A80AB
:10373000BB6B13F5803F37D17B681B681A687B68C9
:103740001B6822F480621A607B681B685B6803F464
:103750000063B3F5006F13D17B681B681A687B6840
:103760001B6822F480621A6000237B627B681B68FE
:103770005B697B627B681B689B697B627B6AE7E0B5
:1037800000233B627B681B685B693B627B681B684C
:103790009B693B623B6A7B681B681A687B681B6895
:1037A00042F400721A60D3E0BB6B082B2ED0BB6BC7
:1037B000202B2BD07B6B122B02D1BB6B012B25D185
:1037C000BB6B042B0ED0BB6B022B0BD0BB6B102B37
:1037D00008D07B681B681A687B681B6822F48062CB
:1037E0001A6007E07B681B681A687B681B6842F4F4
:1037F00080621A600023FB617B681B685B69FB6168
:103800007B681B689B69FB61FB69A1E07B681B68A7
:103810001A687B681B6822F480621A600023BB610F
:103820007B681B685B69BB617B681B689B69BB61CC
:10383000BB697B681B681A687B681B6842F400726E
:103840001A6085E07B685B8D9BB2022B4DD1BB6B10
:10385000042B16D0BB6B022B13D0BB6B102B10D0DC
:103860007B681B681A687B681B6822F480621A6098
:103870007B681B681A687B681B6842F400621A60E8
:1038800007E07B681B681A687B681B6842F48062EB
:103890001A607B681B685B6803F40063B3F5006F14
:1038A00017D1BB6B13F5803F0BD0BB6B012B08D03E
:1038B000BB6B082B05D0BB6B102B02D0BB6B202B36
:1038C00007D17B681B685A687B681B6842F480528A
:1038D0005A6000237B617B681B685B697B617B6846
:1038E0001B689B697B617B6932E07B681B681A6897
:1038F0007B681B6842F480621A607B681B685B68A7
:1039000003F40063B3F5006F17D1BB6B13F5803F71
:103910000BD0BB6B012B08D0BB6B082B05D0BB6B4E
:10392000102B02D0BB6B202B07D17B681B685A6819
:103930007B681B6842F480525A6000233B617B68BD
:103940001B685B693B617B681B689B693B613B69EA
:103950007B6800221A650BE00023FB607B681B6814
:103960005B69FB607B681B689B69FB60FB68FFE72A
:1039700000BF4437BD465DF8047B704780B584B016
:1039800000AF78607B6893F83D30FB737B685B8D9C
:103990009BB2002B2BD07B685B6A1A787B681B6814
:1039A0001A617B685B6A5A1C7B685A627B685B8D14
:1039B0009BB2013B9AB27B685A857B685B8D9BB258
:1039C000002B14D1FB7B292B11D17B681B685A6813
:1039D0007B681B6822F480625A607B6821221A632C
:1039E0007B68282283F83D207868FFF7F1F900BF53
:1039F0001037BD4680BD80B483B000AF78607B686F
:103A00005B8D9BB2002B11D07B685B6A1A787B6858
:103A10001B681A617B685B6A5A1C7B685A627B6808
:103A20005B8D9BB2013B9AB27B685A8500BF0C3715
:103A3000BD465DF8047B704780B584B000AF786008
:103A40007B6893F83D30FB737B685B8D9BB2002BEA
:103A50002CD07B681B681A697B685B6AD2B21A70CB
:103A60007B685B6A5A1C7B685A627B685B8D9BB281
:103A7000013B9AB27B685A857B685B8D9BB2002BB9
:103A800014D1FB7B2A2B11D17B681B685A687B6899
:103A90001B6822F480625A607B6822221A637B686A
:103AA000282283F83D207868FFF79CF900BF103783
:103AB000BD4680BD80B483B000AF78607B685B8D0D
:103AC0009BB2002B12D07B681B681A697B685B6A0B
:103AD000D2B21A707B685B6A5A1C7B685A627B6838
:103AE0005B8D9BB2013B9AB27B685A8500BF0C3755
:103AF000BD465DF8047B704780B584B000AF786048
:103B000039600023FB737B6893F83D30DBB203F030
:103B10002803282B27D17B681B685A687B681B68A1
:103B200022F480625A603B689B0803F00103002B7B
:103B300001D10123FB733B68DB0903F00103002B78
:103B400003D17B68DB68BB8102E07B689B69BB813A
:103B50007B68002283F83C20BA89FB7B1946786891
:103B6000FFF74AF90EE00023BB607B681B685B69C6
:103B7000BB607B681B689B69BB60BB687B6800227D
:103B800083F83C2000BF1037BD4680BD80B584B0AF
:103B900000AF78607B6893F83D30FB737B681B68EF
:103BA0005A687B681B6822F4E0625A600023BB609D
:103BB0007B681B685B69BB607B681B681A687B68F5
:103BC0001B6842F001021A60BB687B681B681A68B8
:103BD0007B681B6822F480621A607B681B685B68E4
:103BE00003F40063B3F5006F72D1FB7B222B02D08C
:103BF000FB7B2A2B35D17B689B6B1B685B689AB279
:103C00007B685A857B685B8D9BB2002B05D07B68F7
:103C10001B6C43F004027B681A647B681B685A685B
:103C20007B681B6822F400625A607B689B6B1846B5
:103C3000FDF754FE0346012B49D07B689B6B694A14
:103C40001A657B689B6B1846FDF79CFC0346002BAE
:103C50003DD07B689B6B1B6D7A68926B10469847D2
:103C600035E07B685B6B1B685B689AB27B685A8542
:103C70007B685B8D9BB2002B05D07B681B6C43F08F
:103C800004027B681A647B681B685A687B681B683F
:103C900022F400625A607B685B6B1846FDF71EFEDB
:103CA0000346012B14D07B685B6B4E4A1A657B6818
:103CB0005B6B1846FDF766FC0346002B08D07B685B
:103CC0005B6B1B6D7A68526B1046984700E000BF33
:103CD0007B685B8D9BB2002B3ED07B681B685B6969
:103CE00003F00403042B12D17B681B681A697B68FC
:103CF0005B6AD2B21A707B685B6A5A1C7B685A6234
:103D00007B685B8D9BB2013B9AB27B685A857B686E
:103D10001B685B6903F04003402B12D17B681B6872
:103D20001A697B685B6AD2B21A707B685B6A5A1C3C
:103D30007B685A627B685B8D9BB2013B9AB27B6861
:103D40005A857B685B8D9BB2002B05D07B681B6C12
:103D500043F004027B681A647B681B6C002B03D061
:103D6000786800F0B3F839E0FB7B2A2B09D17B6837
:103D700000221A637B68282283F83D207868FFF7C9
:103D800031F87B6893F83D30DBB2282B11D17B688A
:103D9000154ADA627B6800221A637B68202283F866
:103DA0003D207B68002283F83E207868FFF732F8D8
:103DB00014E07B681B6B222B02D0FB7B222B0DD1E6
:103DC0007B6800221A637B68202283F83D207B6891
:103DD000002283F83E207868FFF704F800BF103710
:103DE000BD4680BDD14300080000FFFF80B584B010
:103DF00000AF78607B6893F83D30FB737B68DB6ACB
:103E0000BB60BB68082B02D0BB68202B29D1FB7B91
:103E1000282B26D17B682C4ADA627B681B685A689B
:103E20007B681B6822F4E0625A607B681B686FF451
:103E300080625A617B681B681A687B681B6822F481
:103E400080621A607B6800221A637B68202283F8F4
:103E50003D207B68002283F83E207868FEF7DAFF79
:103E60002EE0FB7B212B26D17B68174ADA627B6828
:103E700021221A637B68202283F83D207B68002280
:103E800083F83E207B681B685A687B681B6822F4B5
:103E9000E0625A607B681B686FF480625A617B68DD
:103EA0001B681A687B681B6822F480621A60786855
:103EB000FEF78EFF04E07B681B686FF480625A6136
:103EC00000BF1037BD4680BD0000FFFF80B584B045
:103ED00000AF78607B6893F83D30FB737B6893F8A4
:103EE0003E30BB73BB7B102B02D0BB7B402B0AD177
:103EF000FB7B222B07D17B681B681A687B681B68D9
:103F000022F400621A60FB7B03F02803282B07D100
:103F10007B6800221A637B68282283F83D2015E025
:103F20007B681B685B6803F40063B3F5006F0AD01D
:103F3000FB7B602B07D07B68202283F83D207B68C9
:103F4000002283F83E207B6800221A637B681B688E
:103F50005B6803F40063B3F5006F62D17B681B6894
:103F60005A687B681B6822F400625A607B685B6B4E
:103F700093F83530DBB2012B20D07B685B6B6A4A4B
:103F80001A657B685B6B1846FDF7FCFA0346002B4D
:103F900000F089807B681B681A687B681B6822F0C8
:103FA00001021A607B68202283F83D207B685B6BEE
:103FB0001B6D7A68526B1046984774E07B689B6B68
:103FC000594A1A657B689B6B1846FDF7DBFA034676
:103FD000002B68D07B681B685B6903F04003402BB3
:103FE0000BD17B681B681A697B685B6AD2B21A7056
:103FF0007B685B6A5A1C7B685A627B681B681A681C
:104000007B681B6822F001021A607B68202283F81B
:104010003D207B689B6B1B6D7A68926B10469847BE
:1040200041E07B6893F83D30DBB2602B25D17B68A3
:10403000202283F83D207B6800221A647B681B687D
:104040005B6903F04003402B0BD17B681B681A6946
:104050007B685B6AD2B21A707B685B6A5A1C7B68A9
:104060005A627B681B681A687B681B6822F0010231
:104070001A607868FEF7ECFE15E07B681B685B69E8
:1040800003F04003402B0BD17B681B681A697B68E7
:104090005B6AD2B21A707B685B6A5A1C7B685A6290
:1040A000786809F057FD7B681B6CBB60BB6803F048
:1040B0000103002B0ED1BB6803F00203002B09D1D2
:1040C000BB6803F00403002B04D1BB6803F00803B2
:1040D000002B07D07B681B685A687B681B6822F43A
:1040E000E0625A607B6893F83D30FB737B681B6C21
:1040F00003F00403042B13D1FB7B282B10D17B6826
:104100000A4ADA627B6800221A637B68202283F8FD
:104110003D207B68002283F83E207868FEF77AFE17
:1041200000BF1037BD4680BDD14300080000FFFF2F
:1041300080B588B002AFF8607A603B600B467B8147
:10414000FB68DB6A7B617B69082B06D07B69012BEE
:1041500003D07B6913F5803F08D1FB681B681A68A0
:10416000FB681B6842F480721A600BE0FB681B6BF3
:10417000122B07D1FB681B681A68FB681B6842F4A6
:1041800080721A603B6800937B6800224FF0011137
:10419000F86800F0C5F90346002B0DD0FB681B68DA
:1041A0001B6803F48073B3F5807F03D1FB684FF481
:1041B00000721A64032335E0FB681B69B3F5804F76
:1041C00008D17B89DBB21A46FB681B6802F0FE024D
:1041D0001A611BE07B89DB11DBB203F00603DBB263
:1041E00063F00F03DAB2FB681B681A613B687A68F8
:1041F0000E49F86800F0EBF90346002B01D00123CB
:1042000010E07B89DAB2FB681B681A613B687A6848
:104210000749F86800F0DBF90346002B01D00123C1
:1042200000E0002318461837BD4680BD0800010095
:104230000200010080B588B002AFF8607A603B6090
:104240000B467B81FB68DB6A7B61FB681B681A6835
:10425000FB681B6842F480621A607B69082B06D0F9
:104260007B69012B03D07B6913F5803F08D1FB6884
:104270001B681A68FB681B6842F480721A600BE0C6
:10428000FB681B6B112B07D1FB681B681A68FB6866
:104290001B6842F480721A603B6800937B680022BE
:1042A0004FF00111F86800F03BF90346002B0DD0E8
:1042B000FB681B681B6803F48073B3F5807F03D130
:1042C000FB684FF400721A64032379E0FB681B69F2
:1042D000B3F5804F08D17B89DBB243F00103DAB23A
:1042E000FB681B681A615FE07B89DB11DBB203F0BE
:1042F0000603DBB263F00F03DAB2FB681B681A61D6
:104300003B687A683049F86800F061F90346002B91
:1043100001D0012354E07B89DAB2FB681B681A6183
:104320003B687A682949F86800F051F90346002B88
:1043300001D0012344E000233B61FB681B685B69FB
:104340003B61FB681B689B693B613B69FB681B68C1
:104350001A68FB681B6842F480721A603B6800931D
:104360007B6800224FF00111F86800F0D9F803468D
:10437000002B0DD0FB681B681B6803F48073B3F53A
:10438000807F03D1FB684FF400721A64032317E0A7
:104390007B89DB11DBB203F00603DBB263F00E03B3
:1043A000DAB2FB681B681A613B687A680749F868EB
:1043B00000F00DF90346002B01D0012300E000239B
:1043C00018461837BD4680BD0800010002000100F4
:1043D00080B586B000AF78600023FB607B689B6B84
:1043E0007B617B6993F83D30FB744B4B1B68DB08AA
:1043F0004A4AA2FB03231A0A13469B001344DA001D
:10440000D31AFB60FB68002B06D17B691B6C43F061
:1044100020027B691A640AE0FB68013BFB607B6950
:104420001B681B6803F40073B3F5007FEAD07B6957
:104430005B6B002B03D07B695B6B0022DA637B69CB
:104440009B6B002B03D07B699B6B0022DA637B693B
:104450001B681A687B691B6822F480621A607B699A
:1044600000225A857B695B6B002B03D07B695B6BF9
:1044700000221A657B699B6B002B03D07B699B6BC9
:1044800000221A657B691B681A687B691B6822F029
:1044900001021A607B6993F83D30DBB2602B0ED1CC
:1044A0007B69202283F83D207B69002283F83E202F
:1044B0007B6900221A647869FEF7CAFC27E0FB7C5E
:1044C00003F02803282B17D17B691B681A687B69C6
:1044D0001B6842F001021A607B691B681A687B69DD
:1044E0001B6842F480621A607B6900221A637B6950
:1044F000282283F83D2007E07B69202283F83D20B5
:104500007B69002283F83E20786909F023FB00BF15
:104510001837BD4680BD00BF9400002089B5F8144F
:1045200080B584B000AFF860B9603B601346FB71A2
:1045300025E03B68B3F1FF3F21D0FCF7C3FD024605
:10454000BB69D31A3A689A4202D33B68002B16D152
:10455000FB6800221A63FB68202283F83D20FB6879
:10456000002283F83E20FB681B6C43F02002FB68AE
:104570001A64FB68002283F83C20012323E0BB6817
:104580001B0CDBB2012B0DD1FB681B685B69DA43A6
:10459000BB6813409BB2002B0CBF01230023DBB28E
:1045A0001A460CE0FB681B689B69DA43BB68134042
:1045B0009BB2002B0CBF01230023DBB21A46FB7910
:1045C0009A42B6D0002318461037BD4680BD80B54C
:1045D00084B000AFF860B9607A603B6051E0FB687E
:1045E0001B685B6903F48063B3F5806F23D1FB68BC
:1045F0001B681A68FB681B6842F400721A60FB684B
:104600001B686FF480625A61FB6800221A63FB68C2
:10461000202283F83D20FB68002283F83E20FB68BF
:104620001B6C43F00402FB681A64FB68002283F8E9
:104630003C20012346E07B68B3F1FF3F21D0FCF72B
:1046400041FD02463B68D31A7A689A4202D37B68DE
:10465000002B16D1FB6800221A63FB68202283F826
:104660003D20FB68002283F83E20FB681B6C43F072
:104670002002FB681A64FB68002283F83C200123B7
:1046800020E0BB681B0CDBB2012B0CD1FB681B6864
:104690005B69DA43BB6813409BB2002B14BF012354
:1046A0000023DBB20BE0FB681B689B69DA43BB6845
:1046B00013409BB2002B14BF01230023DBB2002B5D
:1046C0008DD1002318461037BD4680BD80B584B01B
:1046D00000AFF860B9607A602DE0F86800F000F98A
:1046E0000346002B01D001232DE0BB68B3F1FF3F4F
:1046F00021D0FCF7E7FC02467B68D31ABA689A42DD
:1047000002D3BB68002B16D1FB6800221A63FB683A
:10471000202283F83D20FB68002283F83E20FB68BE
:104720001B6C43F02002FB681A64FB68002283F8CC
:104730003C20012307E0FB681B685B6903F08003F2
:10474000802BCAD1002318461037BD4680BD80B5E6
:1047500084B000AFF860B9607A602DE0F86800F0CE
:10476000BFF80346002B01D001232DE0BB68B3F155
:10477000FF3F21D0FCF7A6FC02467B68D31ABA683B
:104780009A4202D3BB68002B16D1FB6800221A6341
:10479000FB68202283F83D20FB68002283F83E203E
:1047A000FB681B6C43F02002FB681A64FB68002264
:1047B00083F83C20012307E0FB681B685B6903F07A
:1047C0000403042BCAD1002318461037BD4680BD10
:1047D00080B485B000AF78600023FB60134B1B688A
:1047E000DB08134AA2FB03231A0A13469B00134457
:1047F000FB60FB68013BFB60FB68002B07D17B681B
:104800001B6C43F020027B681A64012308E07B687C
:104810001B681B6803F40073B3F5007FE9D0002325
:1048200018461437BD465DF8047B7047940000209D
:1048300089B5F81480B584B000AFF860B9607A60CB
:1048400042E0FB681B685B6903F01003102B19D171
:10485000FB681B686FF010025A61FB6800221A6344
:10486000FB68202283F83D20FB68002283F83E206D
:10487000FB681A6CFB681A64FB68002283F83C2012
:10488000012329E0FCF71EFC02467B68D31ABA68B4
:104890009A4202D3BB68002B16D1FB6800221A6330
:1048A000FB68202283F83D20FB68002283F83E202D
:1048B000FB681B6C43F02002FB681A64FB68002253
:1048C00083F83C20012307E0FB681B685B6903F069
:1048D0004003402BB5D1002318461037BD4680BD9C
:1048E00080B483B000AF78607B681B685B6903F4B9
:1048F0008063B3F5806F1BD17B681B686FF48062A7
:104900005A617B6800221A637B68202283F83D206D
:104910007B68002283F83E207B681B6C43F0040216
:104920007B681A647B68002283F83C20012300E046
:10493000002318460C37BD465DF8047B704780B4F1
:1049400083B000AF78607B68DB6AB3F52A0F03D1D0
:104950007B680122DA6207E07B68DB6AB3F12A4FE9
:1049600002D17B680822DA6200BF0C37BD465DF8D1
:10497000047B704780B584B000AF78607B68002B03
:1049800001D1012334E07B681B684CF6CC421A60ED
:104990007B681B6845F255521A607B681B687A6811
:1049A00052685A607B681B687A6892689A60FCF764
:1049B00089FBF8600FE0FCF785FB0246FB68D31A21
:1049C000312B08D97B681B68DB6803F00303002BDD
:1049D00001D003230CE07B681B68DB6803F0030352
:1049E000002BE8D17B681B684AF6AA221A600023D4
:1049F00018461037BD4680BD80B483B000AF7860E4
:104A00007B681B684AF6AA221A60002318460C37F6
:104A1000BD465DF8047B7047F0B58FB00AAF786093
:104A20007B68002B01D101230FE17B681B68BB6011
:104A30007B6893F8BD34DBB2002B06D17B68002283
:104A400083F8BC2478680AF0F1F87B68032283F8C5
:104A5000BD24BB68DB6B03F48073002B02D17B6841
:104A600000221A617B681B68184604F098FD7B6879
:104A70001B683B607E686D4606F110040FCC0FC5C5
:104A80000FCC0FC594E8030085E80300331D0ECB5F
:104A9000386804F06FFC0346002B05D07B680222C7
:104AA00083F8BD240123D0E07B681B6800211846F1
:104AB00004F086FD0023FB734AE0FA7B7968134615
:104AC000DB0013449B000B443D3301221A70FA7B38
:104AD00079681346DB0013449B000B443C33FA7B9C
:104AE0001A70FA7BFB7B98B279681346DB0013449B
:104AF0009B000B44443302461A80FA7B79681346C4
:104B0000DB0013449B000B44403300221A70FA7BF5
:104B100079681346DB0013449B000B4448330022A2
:104B20001A60FA7B79681346DB0013449B000B4440
:104B30004C3300221A60FA7B79681346DB00134479
:104B40009B000B44543300221A60FB7B0133FB7340
:104B5000FA7B7B685B689A42AFD30023FB7344E027
:104B6000FA7B79681346DB0013449B000B4403F285
:104B70007D2300221A70FA7B79681346DB00134408
:104B80009B000B4403F51F73FA7B1A70FA7B79685C
:104B90001346DB0013449B000B4403F520730022F3
:104BA0001A70FA7B79681346DB0013449B000B44B0
:104BB00003F5227300221A60FA7B79681346DB0042
:104BC00013449B000B4403F5237300221A60FA7B05
:104BD00079681346DB0013449B000B4403F52573EF
:104BE00000221A60FB7B0133FB73FA7B7B685B68F6
:104BF0009A42B5D37B681B683B607E686D4606F1C0
:104C000010040FCC0FC50FCC0FC594E8030085E846
:104C10000300331D0ECB386804F01EFD0346002B45
:104C200005D07B68022283F8BD2401230DE07B6858
:104C3000002283F838207B68012283F8BD247B683A
:104C40001B68184605F06DFE002318461437BD4654
:104C5000F0BD80B584B000AF78607B681B68FB60F6
:104C60007B6893F8BC34012B01D1022320E07B68E0
:104C7000012283F8BC247B689B6A012B09D17B68E5
:104C80009B69012B05D0FB689B6B43F48032FB686A
:104C90009A637B681B68184604F070FC7B681B688D
:104CA000184605F01DFE7B68002283F8BC24002313
:104CB00018461037BD4680BD90B58DB000AF786006
:104CC0007B681B683B623B6AFB617B681B6818461C
:104CD00005F0DBFE0346002B40F08A847B681B68EE
:104CE000184605F03FFE0346002B00F08084FB6968
:104CF00003F500639B681B0AC3F30D027B68C3F8CE
:104D0000FC247B681B68184605F02CFE034603F064
:104D10000203022B07D17B681B685A697B681B68FA
:104D200002F002025A617B681B68184605F01AFE01
:104D3000034603F01003102B61D17B681B689A694E
:104D40007B681B6822F010029A613B6A1B6ABB6198
:104D5000BB6903F00F021346DB0013449B0003F50D
:104D60001E737A68134404337B61BB695B0C03F0E8
:104D70000F03022B24D1BA6947F6F0731340002BBE
:104D800035D07B691969BB691B099BB2C3F30A0360
:104D90009BB21A46386A05F051FC7B691A69BB69F7
:104DA0001B09C3F30A031A447B691A617B691A6AF7
:104DB000BB691B09C3F30A031A447B691A6216E034
:104DC000BB695B0C03F00F03062B10D17B6803F269
:104DD000C44308221946386A05F030FC7B691A6A18
:104DE000BB691B09C3F30A031A447B691A627B6817
:104DF0001B689A697B681B6842F010029A617B68A5
:104E00001B68184605F0AEFD034603F40023B3F516
:104E1000002F40F0A78000237B627B681B68184648
:104E200005F0B3FDB86299E0BB6A03F00103002B03
:104E300000F08E807B681B687A6AD2B211461846F1
:104E400005F0D7FD38613B6903F00103002B0CD05E
:104E50007B6A5A01FB69134403F530631A46012348
:104E60009360796A786800F0C3FE3B6903F0080339
:104E7000002B0CD07B6A5A01FB69134403F53063A5
:104E80001A4608239360796A786800F099FF3B69B5
:104E900003F01003002B08D07B6A5A01FB6913440E
:104EA00003F530631A46102393603B6903F0020355
:104EB000002B30D03B6A5B6903F08003802B09D163
:104EC000FB6903F500635B68FA6902F5006243F46D
:104ED000806353607A6A1346DB0013449B0003F53A
:104EE0001E737A68134404337B617B69DB78012B82
:104EF00008D17B690022DA707B6ADBB219467868D8
:104F000009F09AFF7B6A5A01FB69134403F5306389
:104F10001A46022393603B6903F02003002B08D05C
:104F20007B6A5A01FB69134403F530631A46202358
:104F300093603B6903F40053002B09D07B6A5A014C
:104F4000FB69134403F530631A464FF40053936032
:104F50007B6A01337B62BB6A5B08BB62BB6A002B66
:104F60007FF462AF7B681B68184605F0FBFC0346C4
:104F700003F48023B3F5802F40F0DB807B681B684F
:104F8000184605F01CFDB86200237B62CDE0BB6AC9
:104F900003F00103002B00F0C2807B681B687A6A73
:104FA000D2B21146184605F042FD38613B6903F064
:104FB0000103002B57D07B6A03F00F03012202FA92
:104FC00003F3FB60FB6903F500635A6BFB68DB438B
:104FD000F96901F5006113404B637B6A5A01FB6973
:104FE000134403F510631A46012393607B681B6921
:104FF000012B32D179687A6A1346DB0013449B0097
:105000000B444C33196878687A6A1346DB00134402
:105010009B00034448331B68194478687A6A134636
:10502000DB0013449B0003444C3319607B6A002B64
:1050300013D179687A6A1346DB0013449B000B4452
:1050400054331B68002B08D17B6818687B6803F217
:10505000C4431A46012105F049FD7B6ADBB21946BB
:10506000786809F064FE3B6903F00803002B08D060
:105070007B6A5A01FB69134403F510631A4608233F
:1050800093603B6903F01003002B08D07B6A5A0140
:10509000FB69134403F510631A46102393603B69C0
:1050A00003F04003002B08D07B6A5A01FB691344CC
:1050B00003F510631A46402393603B6903F0020333
:1050C000002B23D0796A386A04F02AFC7A6A1346E6
:1050D000DB0013449B0038337A68134404337B614C
:1050E0007B69DB78012B08D17B690022DA707B6A4F
:1050F000DBB21946786809F0B1FE7B6A5A01FB6998
:10510000134403F510631A46022393603B6903F0CE
:105110008003002B03D0796A786800F0DBFC7B6A9F
:1051200001337B62BB6A5B08BB62BB6A002B7FF406
:105130002EAF7B681B68184605F014FC034603F08D
:105140000043B3F1004F22D1FB6903F500635B68B4
:10515000FA6902F5006223F0010353607B6893F85B
:10516000F434012B08D17B68002283F8F424002159
:10517000786800F0C3FE02E0786809F04FFE7B68B3
:105180001B685A697B681B6802F000425A617B68A1
:105190001B68184605F0E6FB034603F40063B3F50D
:1051A000006F12D1FB6903F500639B6803F00103F4
:1051B000012B02D1786809F00BFE7B681B685A69E5
:1051C0007B681B6802F400625A617B681B681846A2
:1051D00005F0C8FB034603F48053B3F5805F40F04D
:1051E000B780FB6903F500635B68FA6902F500624A
:1051F00023F0010353607B681B681021184604F0FC
:105200008FFB0023FB6246E0FB6A5A01FB691344F3
:1052100003F510631A464FF67F339360FB6A5A0119
:10522000FB69134403F510631B68FA6A5101FA69BC
:105230000A4402F5106223F400131360FB6A5A015A
:10524000FB69134403F530631A464FF67F339360CE
:10525000FB6A5A01FB69134403F530631B68FA6A61
:105260005101FA690A4402F5306223F40013136015
:10527000FB6A5A01FB69134403F530631B68FA6A41
:105280005101FA690A4402F5306243F00063136089
:10529000FB6A0133FB627B685B68FA6A9A42B3D3AC
:1052A000FB6903F50063DB69FA6902F5006243F00C
:1052B0000113D3617B681B6B002B16D0FB6903F5D0
:1052C0000063D3F88430FA6902F5006243F00B03FF
:1052D000C2F88430FB6903F500635B6CFA6902F580
:1052E000006243F00B03536415E0FB6903F50063B0
:1052F0005B69FA6902F5006243F4005343F02B0343
:105300005361FB6903F500631B69FA6902F50062EA
:1053100043F00B031361FB6903F500631B68FA6933
:1053200002F5006223F4FE6313607B6818687B68F3
:105330001B69D9B27B6803F2C4431A4605F0D6FB59
:105340007B681B685A697B681B6802F480525A614B
:105350007B681B68184605F005FB034603F4005301
:10536000B3F5005F24D17B681B68184605F09BFBF2
:105370007B681B68184604F050FB03461A467B689E
:10538000DA607B681C6801F0E9F901467B68DB683C
:10539000DBB21A46204604F04FF8786809F0EFFCBB
:1053A0007B681B685A697B681B6802F400525A616B
:1053B0007B681B68184605F0D5FA034603F008031E
:1053C000082B0AD1786809F0CCFC7B681B685A6905
:1053D0007B681B6802F008025A617B681B681846EC
:1053E00005F0C0FA034603F08003802B22D13B6A0C
:1053F0009B6923F080023B6A9A6101237B6214E07F
:1054000079687A6A1346DB0013449B000B4403F26D
:105410007F231B78012B05D17B6ADBB219467868A4
:1054200000F027FB7B6A01337B627B685B687A6AEA
:105430009A42E5D37B681B68184605F093FA034649
:1054400003F48013B3F5801F3BD101237B622BE073
:105450007B6A5A01FB69134403F510631B68BB6147
:1054600079687A6A1346DB0013449B000B4440338F
:105470001B78012B15D1BB69002B12DA79687A6A87
:105480001346DB0013449B000B443F3301221A7088
:105490007B6ADBB263F07F03DBB21946786800F009
:1054A000E8FA7B6A01337B627B685B687A6A9A42BE
:1054B000CED37B681B685A697B681B6802F4801234
:1054C0005A617B681B68184605F04CFA034603F4E2
:1054D0000013B3F5001F55D101237B6245E07B6AC1
:1054E0005A01FB69134403F530631B68BB6179689B
:1054F0007A6A1346DB0013449B000B4403F52073C8
:105500001B78012B2ED1BB69002B2BDABB6903F46E
:1055100080327B68D3F8FC3403F001039A4221D136
:1055200079687A6A1346DB0013449B000B4403F24C
:105530007F2301221A703B6A9B6943F080023B6A19
:105540009A613B6A5B6903F08003002B0AD1FB6917
:1055500003F500635B68FA6902F5006243F40073C7
:10556000536007E07B6A01337B627B685B687A6A21
:105570009A42B4D37B681B685A697B681B6802F443
:1055800000125A617B681B68184605F0EBF9034668
:1055900003F08043B3F1804F0AD1786809F070FCC2
:1055A0007B681B685A697B681B6802F080425A61FD
:1055B0007B681B68184605F0D5F9034603F0040321
:1055C000042B15D17B681B685B68BB61BB6903F06A
:1055D0000403002B02D0786809F060FC7B681B682C
:1055E00059687B681B68BA690A435A6000E000BFCB
:1055F0003437BD4690BD80B582B000AF78600B46B1
:10560000FB707B6893F8BC34012B01D1022313E0BB
:105610007B68012283F8BC247B68FA7883F8382001
:105620007B681B68FA781146184605F033F97B68E9
:10563000002283F8BC24002318460837BD4680BDED
:1056400080B584B000AF7860084611461A4603461C
:10565000FB700B463B801346BB700023FB7297F92F
:105660000330002B0FDAFB7803F00F021346DB0048
:1056700013449B0038337A6813440433FB60FB689F
:1056800001225A700FE0FB7803F00F021346DB0093
:1056900013449B0003F51E737A6813440433FB60C4
:1056A000FB6800225A70FB7803F00F03DAB2FB6844
:1056B0001A703A88FB68DA60FB68BA781A71FB687E
:1056C0005B78002B04D0FB681B789AB2FB681A81C8
:1056D000BB78022B02D1FB6800225A717B6893F8D9
:1056E000BC34012B01D102230EE07B68012283F838
:1056F000BC247B681B68F968184604F0B3F97B6822
:10570000002283F8BC24FB7A18461037BD4680BDC2
:1057100080B584B000AF78600B46FB7097F903301A
:10572000002B0FDAFB7803F00F021346DB00134463
:105730009B0038337A6813440433FB60FB68012212
:105740005A700FE0FB7803F00F021346DB0013449E
:105750009B0003F51E737A6813440433FB60FB68F7
:1057600000225A70FB7803F00F03DAB2FB681A705C
:105770007B6893F8BC34012B01D102230EE07B68D7
:10578000012283F8BC247B681B68F968184604F082
:10579000F1F97B68002283F8BC24002318461037F7
:1057A000BD4680BD80B586B000AFF8607A603B60D2
:1057B0000B46FB72FB7A03F00F021346DB00134427
:1057C0009B0003F51E73FA68134404337B617B6905
:1057D0007A681A617B693A689A617B6900221A6269
:1057E0007B6900225A70FB7A03F00F03DAB27B69FF
:1057F0001A70FB681B69012B02D17A687B695A61B8
:10580000FB7A03F00F03002B09D1FB681868FB68D3
:105810001B69DBB21A46796904F0D0FC08E0FB682A
:105820001868FB681B69DBB21A46796904F07EFAD6
:10583000002318461837BD4680BD80B483B000AF42
:1058400078600B46FB70FB7803F00F027968134613
:10585000DB0013449B000B4403F527731B681846B9
:105860000C37BD465DF8047B704780B586B000AF4D
:10587000F8607A603B600B46FB72FB7A03F00F0224
:105880001346DB0013449B003833FA681344043397
:105890007B617B697A681A617B693A689A617B6986
:1058A00000221A627B6901225A70FB7A03F00F030F
:1058B000DAB27B691A70FB681B69012B02D17A6826
:1058C0007B695A61FB7A03F00F03002B09D1FB6857
:1058D0001868FB681B69DBB21A46796904F06EFC34
:1058E00008E0FB681868FB681B69DBB21A46796937
:1058F00004F01CFA002318461837BD4680BD80B559
:1059000084B000AF78600B46FB70FB7803F00F02A9
:105910007B685B689A4201D9012350E097F9033014
:10592000002B0FDAFB7803F00F021346DB00134461
:105930009B0038337A6813440433FB60FB68012210
:105940005A700DE0FA781346DB0013449B0003F510
:105950001E737A6813440433FB60FB6800225A709C
:10596000FB6801229A70FB7803F00F03DAB2FB6840
:105970001A707B6893F8BC34012B01D102231EE01E
:105980007B68012283F8BC247B681B68F968184691
:1059900004F0ACFEFB7803F00F03002B0AD17B6808
:1059A00018687B681B69D9B27B6803F2C4431A4646
:1059B00005F09CF87B68002283F8BC24002318467D
:1059C0001037BD4680BD80B584B000AF78600B460F
:1059D000FB70FB7803F00F027B685B689A4201D989
:1059E000012342E097F90330002B0FDAFB7803F034
:1059F0000F021346DB0013449B0038337A681344CC
:105A00000433FB60FB6801225A700FE0FB7803F05F
:105A10000F021346DB0013449B0003F51E737A68E4
:105A200013440433FB60FB6800225A70FB680022B9
:105A30009A70FB7803F00F03DAB2FB681A707B6888
:105A400093F8BC34012B01D102230EE07B680122C4
:105A500083F8BC247B681B68F968184604F0B4FE20
:105A60007B68002283F8BC24002318461037BD460B
:105A700080BD80B584B000AF78600B46FB7097F9AD
:105A80000330002B0CDAFB7803F00F021346DB0027
:105A900013449B0038337A6813440433FB600CE0F2
:105AA000FB7803F00F021346DB0013449B0003F561
:105AB0001E737A6813440433FB607B681B68F968C3
:105AC000184604F0D3FC0346FB72FB7A18461037E5
:105AD000BD4680BD80B58AB002AF786039607B6812
